:020000040800F2
:100000000000012061020008650200086702000884
:100010007D0200087F020008950200080000000031
:10002000000000000000000000000000AB0200081B
:10003000AD02000800000000AF020008AD03000898
:10004000C5020008C5020008C5020008C502000874
:10005000C5020008C5020008DD050008C502000849
:10006000C5020008C5020008C5020008C502000854
:10007000C5020008C5020008C5020008C502000844
:10008000C5020008C5020008C50200080000000003
:10009000000000000000000000000000C502000891
:1000A000C5020008C5020008C5020008C502000814
:1000B000C5020008C5020008C5020008C502000804
:1000C000C5020008C5020008C5020008C5020008F4
:1000D000C5020008C5020008C502000800000000B3
:1000E000C5020008C5020008C502000800000000A3
:1000F000000000000000000000000000C502000831
:1001000000000000C5020008C5020008C502000882
:1001100000000000000000000000000000000000DF
:10012000C5020008C5020008C5020008C502000893
:10013000C5020008000000000000000000000000F0
:10014000000000000000000000000000C5020008E0
:10015000C5020008C5020008C5020008C502000863
:10016000C5020008C50200080000000000000000F1
:10017000000000000000000000000000000000007F
:1001800000000000C50200080000000000000000A0
:10019000C502000807B500F0B7F8274B274883428F
:1001A00026D3274B274900208B422DD300F026FA77
:1001B000254E264C01A9684600F09EF8A41BA41009
:1001C0000025AC4229DC224E224CA41BA4100025A1
:1001D000AC4227DCDDE9000100F011FA1E4D1F4C96
:1001E000641B0646A410002C21DC304600F080F889
:1001F000D3E900120C3353F8044C891A9442CED937
:10020000555815600432F9E753F8082B53F8044C9D
:100210009442C9D910600432FAE756F8253098475D
:100220000135CEE756F8253098470135D0E7013C37
:1002300055F824309847D6E7C8020008E0020008C5
:10024000E0020008F0020008F0020008F0020008D6
:10025000F0020008F0020008F0020008F0020008B6
:1002600014480047FEE71EF0040F0CBFEFF30880B0
:10027000EFF309807146104A1047FEE7FEE71EF0D3
:10028000040F0CBFEFF30880EFF3098071460B4AAF
:100290001047FEE71EF0040F0CBFEFF30880EFF3EA
:1002A00009807146064A1047FEE7FEE7FEE7FEE7D3
:1002B00070470000950100087B02000893020008C7
:0602C000A9020008FEE7A0
:1002C8005006000800000020080000205006000822
:1002D8000000001000000010080000206C00002042
:0802E8000000001000000010EE
:1002F00008B500F015F8000001230360014B0B6006
:10030000704700BF0000002008B500F01BF8024B4A
:10031000024A9A6008BD00BF00ED00E0000000083E
:10032000BFF34F8F0549064BCA6802F4E0621343DE
:10033000CB60BFF34F8F00BFFDE700BF00ED00E0D3
:100340000400FA050C4B1A68002142F001021A6001
:1003500099601A6822F0847222F480321A60074A87
:100360005A601A6822F480221A60D960044B4FF058
:1003700000629A60704700BF0038024010300024CD
:1003800000ED00E0084B58601A6842F001021A6064
:100390001A68D203FCD51A6822F001021A60002202
:1003A0005A609A60704700BF10E000E007B5002374
:1003B0008DF807300F4B1B6803B198470E490B7837
:1003C000012B0DD10D4B1A6822F002021A601A6837
:1003D00022F001021A6000225A609A6002230B7018
:1003E000064B1B68C3F300438DF8073003B05DF87C
:1003F00004FB00BF0C0000200900002010E000E01A
:10040000104B1A6822F080621A601A6842F08072FB
:100410001A601A6842F400221A601A6822F48022D4
:100420001A609A6822F001029A609A6842F0020209
:100430009A601A6842F480321A601A6822F0010247
:100440001A607047003802400138032822D8DFE8DC
:1004500000F0020A121A104A0123106B03FA01F18C
:100460000143116370470C4A0123506B03FA01F1F9
:10047000014351637047084A0123106C03FA01F1EC
:10048000014311647047044A0123506C03FA01F1DF
:1004900001435164704700BF00380240012810B585
:1004A00011D002D302280ED010BD084B18684900A5
:1004B00003248C4020EA04001860186802FA01F155
:1004C00001431960F0E7024BF0E700BF0000024073
:1004D00000040240012A02D0022A14D070470128E9
:1004E00009D002D302280CD07047124B58688A40BA
:1004F00002435A607047104B5A6888401043586056
:1005000070470D4BF2E701280BD002D302280FD021
:1005100070470848436801228A4023EA0202426089
:100520007047054A5368884023EA000050607047CE
:100530000148EFE70000024000040240012810B526
:1005400011D002D302280ED010BD084B9868490084
:1005500003248C4020EA04009860986802FA01F1B4
:1005600001439960F0E7024BF0E700BF0000024052
:1005700000040240012A02D0022A14D07047012848
:1005800009D002D302280CD07047124B58698A4018
:1005900002435A617047104B5A69884010435861B2
:1005A00070470D4BF2E701280BD002D302280FD081
:1005B00070470848436901228A4023EA02024261E7
:1005C0007047054A5369884023EA0000506170472C
:1005D0000148EFE7000002400004024008B5054B67
:1005E0001B6803B19847044A536943F00103536100
:1005F00008BD00BF10000020003C0140704708B556
:10060000FFF7FEFE00210120FFF71EFF012202215D
:100610000020FFF743FF022211460020FFF78EFF64
:10062000022211460020FFF755FF0122022100207F
:10063000FFF7A0FF4FF49670FFF7A4FE02221146C9
:100640000020FFF797FF4FF49670FFF79BFEECE753
:0806500008000020000000007A
:040000050800019559
:00000001FF
